:0A098400C0F9A4B0999282F88090A7
:10096700E4FFFE0FBF00010EE4B507F7EEB47DF319
:01097700225D
:1008F600E4F508F509780A7C00FD7BFF7A0979841E
:10090600FE7F0A1208D0E4F59075A0FF740A250947
:10091600F8E6F5A03090221209672090FDC3E5099C
:100926009409E50864809480500A0509E509700970
:1009360005088005E4F508F5093091D0120967200D
:1009460091FDD3E5099400E50864809480400AE5AA
:1009560009150970B7150880B3750800750909806F
:01096600ABE5
:030000000209787A
:0C097800787FE4F6D8FD7581130208F6C4
:10080000E709F608DFFA8046E709F208DFFA803EDA
:1008100088828C83E709F0A3DFFA8032E309F608C7
:10082000DFFA8078E309F208DFFA807088828C832F
:10083000E309F0A3DFFA806489828A83E0A3F608E3
:10084000DFFA805889828A83E0A3F208DFFA804CBD
:1008500080D280FA80C680D4806980F28033801094
:1008600080A680EA809A80A880DA80E280CA8033FD
:1008700089828A83ECFAE493A3C8C582C8CCC58375
:10088000CCF0A3C8C582C8CCC583CCDFE9DEE78045
:100890000D89828A83E493A3F608DFF9ECFAA9F0C4
:1008A000EDFB2289828A83ECFAE0A3C8C582C8CC1A
:1008B000C583CCF0A3C8C582C8CCC583CCDFEADE33
:1008C000E880DB89828A83E493A3F208DFF980CC95
:1008D00088F0EF60010E4E60C388F0ED2402B4048E
:1008E0000050B9F582EB2402B4040050AF23234535
:0608F00082239008507302
:00000001FF
